:100B2A00040103020201000002020203040102019D
:100B3A000403030402000202030102030202020484
:100B4A00020400030402030100030103030002007C
:100B5A000403030303030401010403000100030265
:100B6A000302030304040103000003010303030057
:100B7A000303040102040103000103040403020342
:090B8A00010203034C4F56452102
:100CDD000553E7E7E7E7E705700A233C556E102358
:100CED0000000400000004000000040000000000EB
:030CFD00014703A9
:080D93007F0C7EA8DEFEDFFCF0
:010D9B002235
:0E0D6300AD07AF051DEF6005120D9380F52260
:100D430075E501E4F5E38FE475E64675E6B9AFE2D0
:010D5300227D
:100BDB00E6FD0F120C0F08E6FD0F120C0F08E6FDD9
:100BEB000F120C0F08E6FD0F120C0F08E6FD0F128B
:100BFB000C0F08E6FD0F120C0F08E6FD0F120C0F81
:040C0B0008E6FD0FEB
:100C0F0075E5028DE2E4F5E38FE475E64675E6B926
:010C1F0022B2
:0F0D540075E503E4F5E38FE475E64675E6B9222D
:1003530075E782E4FF120D43BFE40A7F01120D43E8
:10036300EF64A56004D20280467F02120D438F70B2
:100373007F03120D438F717F04120D438F727F052C
:10038300120D438F737F06120D438F747F07120D77
:10039300438F537F08120D438F547F09120D438FF0
:1003A300557F0A120D438F567F0B120D438F577FD4
:1003B3000C120D43BFE40A7F0D120D43EF64A560D9
:1003C30034780D76020876000876020876000876FF
:1003D3000008765008760208760008760208760050
:1003E3000876020876000876020876000876020886
:1003F30076000205107F0E120D43780D760008A6D5
:1004030007E6F8E4790EF7E819F77F0F120D437842
:100413000EEF26F618E436F67F10120D43780F76AA
:100423000008A607E6F8E47910F7E819F77F111238
:100433000D437810EF26F618E436F67F12120D43BB
:100443007811760008A607E6F8E47912F7E819F7B9
:100453007F13120D437812EF26F618E436F67F1455
:10046300120D437813760008A607E6F8E47914F72B
:10047300E819F77F15120D437814EF26F618E436C2
:10048300F67F16120D437815760008A607E6F8E402
:100493007916F7E819F77F17120D437816EF26F64A
:1004A30018E436F67F18120D437817760008A6076E
:1004B300E6F8E47918F7E819F77F19120D4378186D
:1004C300EF26F618E436F67F1A120D4378197600F4
:1004D30008A607E6F8E4791AF7E819F77F1B120D67
:1004E30043781AEF26F618E436F67F1C120D43788C
:1004F3001B760008A607E6F8E4791CF7E819F77FEE
:100503001D120D43781CEF26F618E436F6E4F5E7E2
:0105130022C5
:100ABF0075E782E4FF120D547DE4120C0F7DA50F34
:100ACF00120C0FAD700F120C0FAD710F120C0FAD8A
:100ADF00720F120C0FAD730F120C0FAD740F120CAF
:100AEF000FAD530F120C0FAD540F120C0FAD550F5E
:100AFF00120C0FAD560F120C0FAD570F120C0F300B
:100B0F0000157DE40F120C0F7DA50F120C0F780D41
:0B0B1F00120BDB08120BDBE4F5E722F1
:100B9300120BC212085CFF120BC2900001120875FF
:100BA300FF120BC2900002120875FF120BC29000D5
:0F0BB30003120875FF120BC2900004120875FFA1
:100BC200E4FEEF3392B3D2A4EF25E0FFA2B5E43303
:080BD2004207C2A40EBE08EAAE
:010BDA0022F8
:060D1900C2A57D407F072A
:100D1F00C2B2EF2420FF120BC2AF05120BC2D2B228
:010D2F0022A1
:060C8B007A0079647D0B84
:060C91008B0A8A0B890C9E
:100C9700C2B27FA0120BC2E4FCECC39D5011AB0A99
:100CA700AA0BA90C8C82758300120BBE0C80EAD2AA
:010CB700B28A
:010CB8002219
:080C20007B007A0079587D0B7E
:060C28008B098A0A890B0A
:100C2E00C2B27F61120BC2E4FCECC39D5017E4FF0D
:100C3E00120BC2AB09AA0AA90B8C82758300EF12A4
:070C4E0008A20C80E4D2B201
:010C5500227C
:0A0D8900C2B27F30120B93D2B222E7
:0E0D01007F21120D377BFF7A0B798E120D8940
:0A0D0F00C2B27F2A120B93D2B22267
:0C000E00C2A57D3BE4FF120D1FD2A5220D
:0C0D7100C2A57D0AE4FF120D1FD2A522CE
:100CB900C2A5BF03047D278013BF02047D25800CD4
:100CC900BF01047D238005EF70077D217F06120D8A
:040CD9001FD2A5225F
:0C0D7D00AD07C2A57F11120D1FD2A522E8
:070D300074702545F8E6FF91
:0C0D3700AD07C2A57F05120D1FD2A5223A
:100C5600C2A5C2A4E4FD7F01120D1F0D7F02120D75
:100C66001F1D7F04120D1F12000E7F42120D37AF9B
:100C760047120CB97F0B120D7D7B007A0079531257
:050C86000D0F020D89B5
:100A3C00E4F509C2A5C2A4C2B27F20120BC2EF64B6
:100A4C000E60037509017F0A120BC2D2B2C2B2E466
:100A5C00FF120BC2E4FF120BC2EF640A6003436F78
:100A6C0002D2B2E4FD7F01120D1F7F04120D1F0D87
:100A7C007F11120D1F7B007A007964120C91D2A5A4
:100A8C007F02120D63C2B2E4FF120BC2EF642E6040
:100A9C0003436F04D2B230B403436F18D2A5E509F7
:100AAC00600AE56FD394014003436F017D207F07FB
:030ABC00020D1F09
:1009B700F5428E41E5611313543F2542F542E43574
:1009C70041F541E5615403754300F544754400F56D
:1009D70043E5622544F544E43543F543E4FBFA7DFA
:1009E700FF7C03AF36AE35120A1FAF38AE37120A97
:1009F7001FAF3AAE39120A1FAF3CAE3B120A1FAF08
:100A07003EAE3D120A1FAF40AE3F120A1FAF42AEC5
:080A170041120A1FAF44AE4377
:100A1F00D3EF9DEC6480F8EE6480984004AE04AF91
:0D0A2F0005C3EF9BEA6480F8EE6480982216
:10051400C295120D9320940D759208D295120D93E5
:10052400309402D201C2A27F64120D637592FB75EE
:1005340096C775B28075891175A88A75B808300197
:1005440002D202120353780DE6FE08E6FFE4FBFA3A
:100554007DFF7C03120A1F780FE6FE08E6FF120AED
:100564001F7811E6FE08E6FF120A1F7813E6FE085C
:10057400E6FF120A1F7815E6FE08E6FF120A1F7846
:1005840017E6FE08E6FF120A1F7819E6FE08E6FFE2
:10059400120A1F781BE6FE08E6FF120A1F120A3C25
:1005A400E56F601475080AC2A27F32120D63D2A2ED
:1005B4007F32120D63D508EF120C56200203020697
:1005C4005CE4FF120CB9120D0120B4FD120C2012D0
:1005D4000D19D2A5E558B4A01E855970855A7185A8
:1005E4005B72855C73855D74855E53855F5485603D
:1005F4005585615685625775644F75654BD20330D6
:100604000342120D71120D017B00120C8B120D931B
:1006140012000EAF70120D377B007A007953120D61
:1006240089120D0F120D9320B40C120C20120D1907
:10063400D2A5C20380C90508E508D3946440E5E463
:10064400F50880BB120ABF7B007A007953120D0FA4
:08065400120D897F03120CB99D
:01065C00227B
:10001E007FC8120D637FC8120D63120514438780CB
:10002E00759850438E04759CF3438E01438E10D207
:10003E008CAF70120D3720B4FDD28ED204D2A2A294
:10004E000482B440FA200403020312C207C208E479
:10005E00F522054EF548F549F54CF54DF563FB12C5
:10006E000C22120D19D2A5120D71853464E4F565BA
:10007E00F566F567F568FB120C8B120D9312000EE8
:10008E0030050AC205E546900B2A93F5450545E570
:10009E0045D394044003E4F545120D30E55864A0B1
:1000AE0060030201E4D206C2A2F535855936E53663
:1000BE00AE357802C333CE33CED8F9F5368E35E56C
:1000CE005AC4131354032536F536E43535F535E5A4
:1000DE005A543F753700F538C4F8540FC868F538D0
:1000EE00E537C454F048F537E55BC4540F2538F5B1
:1000FE0038E43537F537E55B540F753900F53AAE10
:10010E00397806C333CE33CED8F9F53A8E39E55C5D
:10011E001313543F253AF53AE43539F539E55C5475
:10012E0003753B00F53C753C00F53BE55D253CF564
:10013E003CE4353BF53B753D00855E3EE53EAE3D10
:10014E007802C333CE33CED8F9F53E8E3DE55FC48B
:10015E0013135403253EF53EE4353DF53DE55F545E
:10016E003F753F00F540C4F8540FC868F540E53FB1
:10017E00C454F048F53FE560C4540F2540F540E403
:10018E00353FF53FE560540F754100F542AE4178BD
:10019E0006C333CE33CED8F91209B7780DA635087B
:1001AE00A63608A63708A63808A63908A63A08A61D
:1001BE003B08A63C08A63D08A63E08A63F08A6405A
:1001CE0008A64108A64208A64308A644D200120A71
:1001DE00BFC20002004DE55864A1600302004DF558
:1001EE0035855936E536AE357802C333CE33CED8A3
:1001FE00F9F5368E35E55AC4131354032536F53604
:10020E00E43535F535E55A543F753700F538C4F801
:10021E00540FC868F538E537C454F048F537E55B38
:10022E00C4540F2538F538E43537F537E55B540FF0
:10023E00753900F53AAE397806C333CE33CED8F9D8
:10024E00F53A8E39E55C1313543F253AF53AE43509
:10025E0039F539E55C5403753B00F53C753C00F50A
:10026E003BE55D253CF53CE4353BF53B753D0085B6
:10027E005E3EE53EAE3D7802C333CE33CED8F9F5C1
:10028E003E8E3DE55FC413135403253EF53EE43523
:10029E003DF53DE55F543F753F00F540C4F8540F02
:1002AE00C868F540E53FC454F048F53FE560C454D6
:1002BE000F2540F540E4353FF53FE560540F75419D
:1002CE0000F542AE417806C333CE33CED8F91209CB
:1002DE00B7853523853624853725853826853927F4
:1002EE00853A28853B29853C2A853D2B853E2C85E4
:1002FE003F2D85402E85412F8542308543318544E3
:10030E003202004D0522E522D394054002D205307B
:10031E00051F0546E546D394634003E4F546E546DE
:10032E00900B2A932470F8E6FF120D37D2040200C8
:10033E004D0545E545D394044003E4F545120D30D3
:05034E00D20402004D85
:03000B0002077F6A
:10077F00C0E0C0D075D000C000758A47758CF405F5
:10078F0049E54970020548D3944DE5489401400D61
:10079F0075480175494D753400C2A28002D2A20579
:1007AF004BE54B7002054AD3944DE54A9401400C3A
:1007BF00754A00754B00854E34754E00054DE54D5D
:1007CF007002054CD3949AE54C94024047754C0245
:1007DF00754D9A780DE6F52308E6F52408E6F5251C
:1007EF0008E6F52608E6F52708E6F52808E6F529D0
:1007FF0008E6F52A08E6F52B08E6F52C08E6F52DB0
:10080F0008E6F52E08E6F52F08E6F53008E6F5318F
:10081F0008E6F532056320070FE563D394074026FA
:10082F00C204D207C208801E20080DE563D3940EC0
:10083F004014C204D208800EE563D39416400775A6
:0D084F006300C204C207D000D0D0D0E03258
:03001B0002065D7D
:10065D00C0E0C0F0C083C082C0D075D000C000C063
:10066D0004C005C006C007C28E0533E53314B410AF
:10067D0000400302076890069175F003A4C5832519
:10068D00F0C583730206C10206C90206CD0206D566
:10069D000206D90206E10206E50206ED0206F102A6
:1006AD0006F90206FD0207050207090207110207F6
:1006BD002902074FD2A1AE23AF248066C2A1804686
:1006CD00D2A0AE25AF26805AC2A0803AD297AE27CF
:1006DD00AF28804EC297802ED296AE29AF2A804287
:1006ED00C2968022D295AE2BAF2C8036C295801645
:1006FD00D294AE2DAF2E802AC294800AD293AE2F03
:10070D00AF30801EC293C374589550F55274F69550
:10071D004FF55185528BE551F58D803FD291AE311C
:10072D00AF327C007D1B1208C47D141208D6C37431
:10073D00EE9FF55074FC9EF54F85508BE54FF58D72
:10074D008019C291C374589550F55274F6954FF5B2
:10075D005185528BE551F58D753300D28ED007D072
:10076D0006D005D004D000D0D0D082D083D0F0D028
:02077D00E03268
:0300000002092BC7
:0C092B00787FE4F6D8FD75817402097233
:10085C00BB010689828A83E0225002E722BBFE029A
:09086C00E32289828A83E49322CD
:10087500BB010CE58229F582E5833AF583E0225038
:1008850006E92582F8E622BBFE06E92582F8E22282
:0D089500E58229F582E5833AF583E493229C
:1008A200F8BB010DE58229F582E5833AF583E8F08C
:1008B200225006E92582C8F622BBFE05E92582C838
:0208C200F22220
:1008C400EF8DF0A4A8F0CF8CF0A428CE8DF0A42E48
:0208D400FE2202
:1008D600BC000BBE0029EF8DF084FFADF022E4CC06
:1008E600F875F008EF2FFFEE33FEEC33FCEE9DECCF
:1008F600984005FCEE9DFE0FD5F0E9E4CEFD22ED15
:10090600F8F5F0EE8420D21CFEADF075F008EF2F5E
:10091600FFED33FD4007985006D5F0F222C398FD4F
:050926000FD5F0EA22EC
:1009370002001EE493A3F8E493A34003F68001F2B8
:1009470008DFF48029E493A3F85407240CC8C333C1
:10095700C4540F4420C8834004F456800146F6DF90
:10096700E4800B0102040810204080900CDDE47E37
:10097700019360BCA3FF543F30E509541FFEE49385
:10098700A360010ECF54C025E060A840B8E493A34C
:10099700FAE493A3F8E493A3C8C582C8CAC583CA77
:1009A700F0A3C8C582C8CAC583CADFE9DEE780BE2F
:010D000000F2
:00000001FF
